0120181210CARDMASTERCARD0003ACBJCCA0001D0001DATAIN 20181210LIVE2760CCA0001D
00000001CARDMASTERCARD10000000000000000000000100000000000000000000000100000000000000000000001000000000000000000000000000000000000000000000000000000000164400                   000000000000000000000000000000000000000000000000000000000000000000000000000000000000000000000000000000000000000000000000000            000697000000000000000000000000000000000000000000000000000                       000000000000000000000000000000000000000000000000000000                                                                                             000000  000                       00                                                                                                                                                                                                                                                  048010502500218120800000018841000010122001P01910012                                                                                                                                                                                                          000000000                0000000000000000000                    000                                                                                                                                                                                                                                                               000                                           000                                 0000000000000000001000                                                                                                    0000000000000000000000000000000000000000000000000000000000000000000000000000000000000000000000000000000000000000000000000000000000000000000000000000000000000000000000000000000000000000000000000000000000000000000000   00000000000000000000000000000000000000                0000000000000000                         000000000000000000000000                                                                                          000            000                                           000                                           000                                           000                                           CCA0001D
05000002CARDMASTERCARD111110000001010000000111110000111000110011100001110000100000001000000010000000000000000000000100000000000000000000000000000000001240165229020019794769   000000000000005500000000005500000000000000000000000000000000000000000000000000000018120817533020110000000000000000000000000C00101C1900C0002001401541100000000000000000000000000000000000000000237230113834210019491920306000002301130600000018841                                                                                                             000000247066864411  000361174  001491         89KALAHARI SUPERMARK\KALAHARI SUPERMARK       Olifantshoek ZA\Olifantshoek\8450         ZAF                                                                                                                                                         0930023003POI01460360029007100000000000817100000000000810148008710271020158010          0165001M                                                                                                                                                             710710000                0000000000000000000                    106000002522902001979476900023635CCA0001D106                                                                                                                                                                                                                      000                                           016 MCC8644111208                   0000000000000000002000                                                                                                    0000000000000000000000000000000000000000000000000000000000000000000000000000000000000000000000000000000000000000000000000000000000000000000000000000000000000000000000000000000000000000000000000000000000000000000000   00000000000000600000018841000000000000                0000000000000000                         000000000000000000000000                                                                                          000            000                                           000                                           000                                           000                                           CCA0001D
05000003CARDMASTERCARD111110000001010000000101110000111000110011100001110000000000001000000010000000000000000000000100000000000000000000000000000000001240165267223569013316   000000000000002090000000002090000000000000000000000000000000000000000000000000000018120811283121060000000000000000000000000C0010121900C0002001401541100000000000000000000000000000000000000000237230113834210019491978106000002301130600000018841                                                                                                             000000247042352200  000361174  001491         89KALAHARI SUPERMARK\KALAHARI SUPERMARK       Olifantshoek ZA\Olifantshoek\8450         ZAF                                                                                                                                                         0930023003POI01460360029007100000000000297100000000000290148008710271020158010          0165001M                                                                                                                                                             710710000                0000000000000000000                    000                                                                                                                                                                                                                                                               000                                           016 MCC3522001208                   0000000000000000003000                                                                                                    0000000000000000000000000000000000000000000000000000000000000000000000000000000000000000000000000000000000000000000000000000000000000000000000000000000000000000000000000000000000000000000000000000000000000000000000   00000000000000600000018841000000000000                0000000000000000                         000000000000000000000000                                                                                          000            000                                           000                                           000                                           000                                           CCA0001D
05000004CARDMASTERCARD111110000001010000000111110000111000110011100001110000100000001000000010000000000000000000000100000000000000000000000000000000001240165229020049157169   000000000000185000000000185000000000000000000000000000000000000000000000000000000018120712463922060000000000000000000000000C00101C1900C0002001401569100000000000000000000000000000000000000000237230113834210019492370006000002301130600000018841                                                                                                             000001484003745999  000184749  001624         86BEALIO BOUTIQUE\BEALIO BOUTIQUE          Umtata North ZA\Umtata North\5099         ZAF                                                                                                                                                            0930023003POI01460360029007100000000027387100000000027380148008710271020158010          0165001M                                                                                                                                                             710710000                0000000000000000000                    116000004522902004915716900023635CCA0001D116                                                                                                                                                                                                                      000                                           016 MCC7459991207                   0000000000000000004000                                                                                                    0000000000000000000000000000000000000000000000000000000000000000000000000000000000000000000000000000000000000000000000000000000000000000000000000000000000000000000000000000000000000000000000000000000000000000000000   00000000000000600000018841000000000000                0000000000000000                         000000000000000000000000                                                                                          000            000                                           000                                           000                                           000                                           CCA0001D
05000005CARDMASTERCARD111110000001010000000111110000111000110011100001110000100000001000000010000000000000000000000100000000000000000000000000000000001240165326572603473814   000000000000130000000000130000000000000000000000000000000000000000000000000000000018120812494223110000000000000000000000000C00101C1900C0002001401569100000000000000000000000000000000000000000237230113834210019492375906000002301130600000018841                                                                                                             000001484012666970  000184749  001624         86BEALIO BOUTIQUE\BEALIO BOUTIQUE          Umtata North ZA\Umtata North\5099         ZAF                                                                                                                                                            0930023003POI01460360029007100000000019247100000000019240148008710271020158010          0165001M                                                                                                                                                             710710000                0000000000000000000                    116000005532657260347381400023635CCA0001D116                                                                                                                                                                                                                      000                                           016 MCC6669701208                   0000000000000000005000                                                                                                    0000000000000000000000000000000000000000000000000000000000000000000000000000000000000000000000000000000000000000000000000000000000000000000000000000000000000000000000000000000000000000000000000000000000000000000000   00000000000000600000018841000000000000                0000000000000000                         000000000000000000000000                                                                                          000            000                                           000                                           000                                           000                                           CCA0001D
05000006CARDMASTERCARD111110000001010000000111110000111000110011100001110000100000001000000010000000000000000000000100000000000000000000000000000000001240165179890052184775   000000000000046000000000046000000000000000000000000000000000000000000000000000000018120812180321050000000000000000000000000C00101C1900C0002001401801100000000000000000000000000000000000000000237230113834210019492381706000002301130600000018841                                                                                                             000000001001844283  00010000691002762         93DR T CELE GENERAL PRAC\T CELE GENERAL PRACTI   rthwold Ext 1ZA\Northwold Ext\2155         ZAF                                                                                                                                                     0930023003POI01460360029007100000000006817100000000006810148008710271020158010          0165001M                                                                                                                                                             710710000                0000000000000000000                    116000006517989005218477500023638CCA0001D116                                                                                                                                                                                                                      000                                           016 MCC8442831208                   0000000000000000006000                                                                                                    0000000000000000000000000000000000000000000000000000000000000000000000000000000000000000000000000000000000000000000000000000000000000000000000000000000000000000000000000000000000000000000000000000000000000000000000   00000000000000600000018841000000000000                0000000000000000                         000000000000000000000000                                                                                          000            000                                           000                                           000                                           000                                           CCA0001D
05000007CARDMASTERCARD111110000001010000000111110000111000110011100001110000100000001000000010000000000000000000000100000000000000000000000000000000001240165471209006305029   000000000000020000000000020000000000000000000000000000000000000000000000000000000018120815293921050000000000000000000000000C00101C1900C0002001401581400000000000000000000000000000000000000000237230113834210019492827906000002301130600000018841                                                                                                             000001501027855779  000186240  008336         87TRUEMANS FISHERIES\TRUEMANS FISHERIES       Kirstenhof   ZA\Kirstenhof\7945         ZAF                                                                                                                                                           0930023003POI01460360029007100000000000887100000000000880148008710271020158010          0165001M                                                                                                                                                             710710000                0000000000000000000                    116000007547120900630502900023638CCA0001D116                                                                                                                                                                                                                      000                                           016 MCC8557791208                   0000000000000000007000                                                                                                    0000000000000000000000000000000000000000000000000000000000000000000000000000000000000000000000000000000000000000000000000000000000000000000000000000000000000000000000000000000000000000000000000000000000000000000000   00000000000000600000018841000000000000                0000000000000000                         000000000000000000000000                                                                                          000            000                                           000                                           000                                           000                                           CCA0001D
05000008CARDMASTERCARD111110000001010000000111110000111000110011100001110000100000001000000010000000000000000000000100000000000000000000000000000000001240165181030002471305   000000000000014500000000014500000000000000000000000000000000000000000000000000000018120815582821100000000000000000000000000C00101C1900C0002001401581400000000000000000000000000000000000000000237230113834210019492840206000002301130600000018841                                                                                                             000001501031857509  000186240  008336         87TRUEMANS FISHERIES\TRUEMANS FISHERIES       Kirstenhof   ZA\Kirstenhof\7945         ZAF                                                                                                                                                           0930023003POI01460360029007100000000002157100000000002150148008710271020158010          0165001M                                                                                                                                                             710710000                0000000000000000000                    116000008518103000247130500023638CCA0001D116                                                                                                                                                                                                                      000                                           016 MCC8575091208                   0000000000000000008000                                                                                                    0000000000000000000000000000000000000000000000000000000000000000000000000000000000000000000000000000000000000000000000000000000000000000000000000000000000000000000000000000000000000000000000000000000000000000000000   00000000000000600000018841000000000000                0000000000000000                         000000000000000000000000                                                                                          000            000                                           000                                           000                                           000                                           CCA0001D
05000009CARDMASTERCARD111110000001010000000111110000111000110011100001110000100000001000000010000000000000000000000100000000000000000000000000000000001240165471190193337019   000000000000011400000000011400000000000000000000000000000000000000000000000000000018120812571919070000000000000000000000000C00101C1900C0002001401581400000000000000000000000000000000000000000237230113834210019492870906000002301130600000018841                                                                                                             000001501010846640  000186240  008336         87TRUEMANS FISHERIES\TRUEMANS FISHERIES       Kirstenhof   ZA\Kirstenhof\7945         ZAF                                                                                                                                                           0930023003POI01460360029007100000000000507100000000000500148008710271020158010          0165001M                                                                                                                                                             710710000                0000000000000000000                    116000009547119019333701900023638CCA0001D116                                                                                                                                                                                                                      000                                           016 MCC8466401208                   0000000000000000009000                                                                                                    0000000000000000000000000000000000000000000000000000000000000000000000000000000000000000000000000000000000000000000000000000000000000000000000000000000000000000000000000000000000000000000000000000000000000000000000   00000000000000600000018841000000000000                0000000000000000                         000000000000000000000000                                                                                          000            000                                           000                                           000                                           000                                           CCA0001D
05000010CARDMASTERCARD111110000001010000000111110000111000000011100001110000100000000000000010000000000000000000000100000000000000000000000000000000001240165520578441194821   000000000000018500000000018500000000000000000000000000000000000000000000000000000018120813451619050000000000000000000000000C00101F590000002001402581400000000000000000000000000000000000000000237230113834210019492802206000002301130600000018841                                                                                                                         000000  000186240  008336         57TRUEMANS FISHERIES\KIRSTENHOF\Kirstenhof\7945         ZAF                                                                                                                                                                                         0930023003POI01460360029007100000000002877100000000002870148008710271020158010          0165001M                                                                                                                                                             710710000                0000000000000000000                    116000010552057844119482100023638CCA0001D116                                                                                                                                                                                                                      000                                           000                                 0000000000000000010000                                                                                                    0000000000000000000000000000000000000000000000000000000000000000000000000000000000000000000000000000000000000000000000000000000000000000000000000000000000000000000000000000000000000000000000000000000000000000000000   00000000000000600000018841000000000000                0000000000000000                         000000000000000000000000                                                                                          000            000                                           000                                           000                                           000                                           CCA0001D
05000011CARDMASTERCARD111110000001010000000111110000111000110011100001110000100000001000000010000000000000000000000100000000000000000000000000000000001240165326572602732616   000000000000009800000000009800000000000000000000000000000000000000000000000000000018120811165722050000000000000000000000000C00101C1900C0002001401581400000000000000000000000000000000000000000237230113834210019492775006000002301130600000018841                                                                                                             000001501003442773  000186240  008336         87TRUEMANS FISHERIES\TRUEMANS FISHERIES       Kirstenhof   ZA\Kirstenhof\7945         ZAF                                                                                                                                                           0930023003POI01460360029007100000000001457100000000001450148008710271020158010          0165001M                                                                                                                                                             710710000                0000000000000000000                    116000011532657260273261600023638CCA0001D116                                                                                                                                                                                                                      000                                           016 MCC4427731208                   0000000000000000011000                                                                                                    0000000000000000000000000000000000000000000000000000000000000000000000000000000000000000000000000000000000000000000000000000000000000000000000000000000000000000000000000000000000000000000000000000000000000000000000   00000000000000600000018841000000000000                0000000000000000                         000000000000000000000000                                                                                          000            000                                           000                                           000                                           000                                           CCA0001D
05000012CARDMASTERCARD111110000001010000000111110000111000110011100001110000100000001000000010000000000000000000000100000000000000000000000000000000001240165359680011405490   000000000000004900000000004900000000000000000000000000000000000000000000000000000018120813120219040000000000000000000000000C00101C1900C0002001401581400000000000000000000000000000000000000000237230113834210019492751106000002301130600000018841                                                                                                             000001501011383120  000186240  008336         87TRUEMANS FISHERIES\TRUEMANS FISHERIES       Kirstenhof   ZA\Kirstenhof\7945         ZAF                                                                                                                                                           0930023003POI01460360029007100000000000227100000000000220148008710271020158010          0165001M                                                                                                                                                             710710000                0000000000000000000                    116000012535968001140549000023638CCA0001D116                                                                                                                                                                                                                      000                                           016 MCC3831201208                   0000000000000000012000                                                                                                    0000000000000000000000000000000000000000000000000000000000000000000000000000000000000000000000000000000000000000000000000000000000000000000000000000000000000000000000000000000000000000000000000000000000000000000000   00000000000000600000018841000000000000                0000000000000000                         000000000000000000000000                                                                                          000            000                                           000                                           000                                           000                                           CCA0001D
05000013CARDMASTERCARD111110000001010000000111110000111000110011100001110000100000001000000010000000000000000000000100000000000000000000000000000000001240165229020060449487   000000000000007000000000007000000000000000000000000000000000000000000000000000000018120815090623010000000000000000000000000C00101C1900C0002001401581400000000000000000000000000000000000000000237230113834210019492764406000002301130600000018841                                                                                                             000001501024854547  000186240  008336         87TRUEMANS FISHERIES\TRUEMANS FISHERIES       Kirstenhof   ZA\Kirstenhof\7945         ZAF                                                                                                                                                           0930023003POI01460360029007100000000001047100000000001040148008710271020158010          0165001M                                                                                                                                                             710710000                0000000000000000000                    116000013522902006044948700023638CCA0001D116                                                                                                                                                                                                                      000                                           016 MCC8545471208                   0000000000000000013000                                                                                                    0000000000000000000000000000000000000000000000000000000000000000000000000000000000000000000000000000000000000000000000000000000000000000000000000000000000000000000000000000000000000000000000000000000000000000000000   00000000000000600000018841000000000000                0000000000000000                         000000000000000000000000                                                                                          000            000                                           000                                           000                                           000                                           CCA0001D
05000014CARDMASTERCARD111110000001010000000111110000111000110011100001110000100000001000000010000000000000000000000100000000000000000000000000000000001240165222502465540959   000000000000012500000000012500000000000000000000000000000000000000000000000000000018120813390123060000000000000000000000000C00101C1900C0002001401581400000000000000000000000000000000000000000237230113834210019492439306000002301130600000018841                                                                                                             000001501015774907  000186240  008336         87TRUEMANS FISHERIES\TRUEMANS FISHERIES       Kirstenhof   ZA\Kirstenhof\7945         ZAF                                                                                                                                                           0930023003POI01460360029007100000000000557100000000000550148008710271020158010          0165001M                                                                                                                                                             710710000                0000000000000000000                    116000014522250246554095900023638CCA0001D116                                                                                                                                                                                                                      000                                           016 MCC7749071208                   0000000000000000014000                                                                                                    0000000000000000000000000000000000000000000000000000000000000000000000000000000000000000000000000000000000000000000000000000000000000000000000000000000000000000000000000000000000000000000000000000000000000000000000   00000000000000600000018841000000000000                0000000000000000                         000000000000000000000000                                                                                          000            000                                           000                                           000                                           000                                           CCA0001D
05000015CARDMASTERCARD111110000001010000000111110000111000000011100001110000100000000000000010000000000000000000000100000000000000000000000000000000001240165326572401412311   000000000000011000000000011000000000000000000000000000000000000000000000000000000018120815322021050000000000000000000000000C00101F590000002001402581400000000000000000000000000000000000000000237230113834210019492907906000002301130600000018841                                                                                                                         000000  000186240  008336         57TRUEMANS FISHERIES\KIRSTENHOF\Kirstenhof\7945         ZAF                                                                                                                                                                                         0930023003POI01460360029007100000000001717100000000001710148008710271020158010          0165001M                                                                                                                                                             710710000                0000000000000000000                    116000015532657240141231100023638CCA0001D116                                                                                                                                                                                                                      000                                           000                                 0000000000000000015000                                                                                                    0000000000000000000000000000000000000000000000000000000000000000000000000000000000000000000000000000000000000000000000000000000000000000000000000000000000000000000000000000000000000000000000000000000000000000000000   00000000000000600000018841000000000000                0000000000000000                         000000000000000000000000                                                                                          000            000                                           000                                           000                                           000                                           CCA0001D
05000016CARDMASTERCARD111110000001010000000111110000111000110011100001110000100000001000000010000000000000000000000100000000000000000000000000000000001240165229020064236856   000000000000004000000000004000000000000000000000000000000000000000000000000000000018120809390223030000000000000000000000000C00101C1900C0002001401581400000000000000000000000000000000000000000237230113834210019493255206000002301130600000018841                                                                                                             000001501001834743  000186240  008336         87TRUEMANS FISHERIES\TRUEMANS FISHERIES       Kirstenhof   ZA\Kirstenhof\7945         ZAF                                                                                                                                                           0930023003POI01460360029007100000000000597100000000000590148008710271020158010          0165001M                                                                                                                                                             710710000                0000000000000000000                    116000016522902006423685600023640CCA0001D116                                                                                                                                                                                                                      000                                           016 MCC8347431208                   0000000000000000016000                                                                                                    0000000000000000000000000000000000000000000000000000000000000000000000000000000000000000000000000000000000000000000000000000000000000000000000000000000000000000000000000000000000000000000000000000000000000000000000   00000000000000600000018841000000000000                0000000000000000                         000000000000000000000000                                                                                          000            000                                           000                                           000                                           000                                           CCA0001D
05000017CARDMASTERCARD111110000001010000000111110000111000110011100001110000100000001000000010000000000000000000000100000000000000000000000000000000001240165412820026327678   000000000000012400000000012400000000000000000000000000000000000000000000000000000018120811144220070000000000000000000000000C00101C1900C0002001401581400000000000000000000000000000000000000000237230113834210019493019206000002301130600000018841                                                                                                             000001501002840482  000186240  008336         87TRUEMANS FISHERIES\TRUEMANS FISHERIES       Kirstenhof   ZA\Kirstenhof\7945         ZAF                                                                                                                                                           0930023003POI01460360029007100000000001847100000000001840148008710271020158010          0165001M                                                                                                                                                             710710000                0000000000000000000                    116000017541282002632767800023640CCA0001D116                                                                                                                                                                                                                      000                                           016 MCC8404821208                   0000000000000000017000                                                                                                    0000000000000000000000000000000000000000000000000000000000000000000000000000000000000000000000000000000000000000000000000000000000000000000000000000000000000000000000000000000000000000000000000000000000000000000000   00000000000000600000018841000000000000                0000000000000000                         000000000000000000000000                                                                                          000            000                                           000                                           000                                           000                                           CCA0001D
05000018CARDMASTERCARD111110000001010000000111110000111000110011100001110000100000001000000010000000000000000000000100000000000000000000000000000000001240165412820011865930   000000000000017600000000017600000000000000000000000000000000000000000000000000000018120811273420110000000000000000000000000C00101C1900C0002001401581400000000000000000000000000000000000000000237230113834210019493002806000002301130600000018841                                                                                                             000001501004841255  000186240  008336         87TRUEMANS FISHERIES\TRUEMANS FISHERIES       Kirstenhof   ZA\Kirstenhof\7945         ZAF                                                                                                                                                           0930023003POI01460360029007100000000002607100000000002600148008710271020158010          0165001M                                                                                                                                                             710710000                0000000000000000000                    116000018541282001186593000023640CCA0001D116                                                                                                                                                                                                                      000                                           016 MCC8412551208                   0000000000000000018000                                                                                                    0000000000000000000000000000000000000000000000000000000000000000000000000000000000000000000000000000000000000000000000000000000000000000000000000000000000000000000000000000000000000000000000000000000000000000000000   00000000000000600000018841000000000000                0000000000000000                         000000000000000000000000                                                                                          000            000                                           000                                           000                                           000                                           CCA0001D
05000019CARDMASTERCARD111110000001010000000111110000111000110011100001110000100000001000000010000000000000000000000100000000000000000000000000000000001240165222625464773576   000000000000014150000000014150000000000000000000000000000000000000000000000000000018120809533122050000000000000000000000000C00101C1900C0002001401507400000000000000000000000000000000000000000237230113834210019493265106000002301130600000018841                                                                                                             000000001003264597  00010000667009783         91RUDONE ONTWIKKELING (P\DONE ONTWIKKELING (PTY   Harrismith   ZA\Harrismith\9880         ZAF                                                                                                                                                       0930023003POI01460360029007100000000002097100000000002090148008710271020158010          0165001M                                                                                                                                                             710710000                0000000000000000000                    116000019522262546477357600023640CCA0001D116                                                                                                                                                                                                                      000                                           016 MCC2645971208                   0000000000000000019000                                                                                                    0000000000000000000000000000000000000000000000000000000000000000000000000000000000000000000000000000000000000000000000000000000000000000000000000000000000000000000000000000000000000000000000000000000000000000000000   00000000000000600000018841000000000000                0000000000000000                         000000000000000000000000                                                                                          000            000                                           000                                           000                                           000                                           CCA0001D
05000020CARDMASTERCARD111110000001010000000101110000111000110011100001110000000000001000000010000000000000000000000100000000000000000000000000000000001240165223630001303332   000000000000090783000000090783000000000000000000000000000000000000000000000000000018120812332619090000000000000000000000000C0010161900C0002001401701100000000000000000000000000000000000000000237230113834210019493508406000002301130600000018841                                                                                                             000001972002845206  000142575  010669         83CARRINGTON LODGE\CARRINGTON LODGE         West End     ZA\West End\8301         ZAF                                                                                                                                                               0930023003POI01460360029007100000000014077100000000014070148008710271020158010          0165001M                                                                                                                                                             710710000                0000000000000000000                    000                                                                                                                                                                                                                                                               000                                           016 MCC8452061208                   0000000000000000020000                                                                                                    0000000000000000000000000000000000000000000000000000000000000000000000000000000000000000000000000000000000000000000000000000000000000000000000000000000000000000000000000000000000000000000000000000000000000000000000   00000000000000600000018841000000000000                0000000000000000                         000000000000000000000000                                                                                          000            000                                           000                                           000                                           000                                           CCA0001D
05000021CARDMASTERCARD111110000001010000000111110000111000110011100001110000100000001000000010000000000000000000000100000000000000000000000000000000001240165222625467497975   000000000000014500000000014500000000000000000000000000000000000000000000000000000018120815142722080000000000000000000000000C00101C1900C0002001401594700000000000000000000000000000000000000000237230113834210019487882106000002301130600000018841                                                                                                             000001058010951209  00010000165010765         86GRACY'S CRAFTS\GRACY ' S CRAFTS         Little Falls ZA\Little Falls \1735         ZAF                                                                                                                                                            0930023003POI01460360029007100000000002157100000000002150148008710271020158010          0165001M                                                                                                                                                             710710000                0000000000000000000                    116000021522262546749797500023640CCA0001D116                                                                                                                                                                                                                      000                                           016 MCC9512091208                   0000000000000000021000                                                                                                    0000000000000000000000000000000000000000000000000000000000000000000000000000000000000000000000000000000000000000000000000000000000000000000000000000000000000000000000000000000000000000000000000000000000000000000000   00000000000000600000018841000000000000                0000000000000000                         000000000000000000000000                                                                                          000            000                                           000                                           000                                           000                                           CCA0001D
05000022CARDMASTERCARD111110000001010000000111110000111000110011100001110000100000001000000010000000000000000000000100000000000000000000000000000000001240165412820016530364   000000000000048100000000048100000000000000000000000000000000000000000000000000000018120815244219030000000000000000000000000C00101C1900C0002001401594700000000000000000000000000000000000000000237230113834210019487914206000002301130600000018841                                                                                                             000001058011855483  00010000165010765         86GRACY'S CRAFTS\GRACY ' S CRAFTS         Little Falls ZA\Little Falls \1735         ZAF                                                                                                                                                            0930023003POI01460360029007100000000007127100000000007120148008710271020158010          0165001M                                                                                                                                                             710710000                0000000000000000000                    106000022541282001653036400023640CCA0001D106                                                                                                                                                                                                                      000                                           016 MCC8554831208                   0000000000000000022000                                                                                                    0000000000000000000000000000000000000000000000000000000000000000000000000000000000000000000000000000000000000000000000000000000000000000000000000000000000000000000000000000000000000000000000000000000000000000000000   00000000000000600000018841000000000000                0000000000000000                         000000000000000000000000                                                                                          000            000                                           000                                           000                                           000                                           CCA0001D
05000023CARDMASTERCARD111110000001010000000111110000111000000011100001110000100000000000000010000000000000000000000100000000000000000000000000000000001240165221008463962956   000000000000020000000000020000000000000000000000000000000000000000000000000000000018120813105521030000000000000000000000000C00101F1900C0002001402594700000000000000000000000000000000000000000237230113834210019487918306000002301130600000018841                                                                                                                         000000  00010000165010765         58GRACY'S CRAFTS\LITTLE FALLS\Little Falls \1735         ZAF                                                                                                                                                                                        0930023003POI01460360029007100000000003107100000000003100148008710271020158010          0165001M                                                                                                                                                             710710000                0000000000000000000                    116000023522100846396295600023640CCA0001D116                                                                                                                                                                                                                      000                                           000                                 0000000000000000023000                                                                                                    0000000000000000000000000000000000000000000000000000000000000000000000000000000000000000000000000000000000000000000000000000000000000000000000000000000000000000000000000000000000000000000000000000000000000000000000   00000000000000600000018841000000000000                0000000000000000                         000000000000000000000000                                                                                          000            000                                           000                                           000                                           000                                           CCA0001D
05000024CARDMASTERCARD111110000001010000000111110000111000110011100001110000100000001000000010000000000000000000000100000000000000000000000000000000001240165229020004013514   000000000000015000000000015000000000000000000000000000000000000000000000000000000018120715231419110000000000000000000000000C00101C1900C0002001401594400000000000000000000000000000000000000000237230113834210019488187406000002301130600000018841                                                                                                             000001323003755394  000136272  016906         92LA PETITE BIJOUTERIE\LA PETITE BIJOUTERIE     ZwaveldspoortZA\Zwaveldspoort\0002         ZAF                                                                                                                                                      0930023003POI01460360029007100000000002227100000000002220148008710271020158010          0165001M                                                                                                                                                             710710000                0000000000000000000                    106000024522902000401351400023640CCA0001D106                                                                                                                                                                                                                      000                                           016 MCC7553941207                   0000000000000000024000                                                                                                    0000000000000000000000000000000000000000000000000000000000000000000000000000000000000000000000000000000000000000000000000000000000000000000000000000000000000000000000000000000000000000000000000000000000000000000000   00000000000000600000018841000000000000                0000000000000000                         000000000000000000000000                                                                                          000            000                                           000                                           000                                           000                                           CCA0001D
05000025CARDMASTERCARD111110000001010000000111110000111000110011100001110000100000001000000010000000000000000000000100000000000000000000000000000000001240165523670030702010   000000000000212200000000212200000000000000000000000000000000000000000000000000000018120722151621110000000000000000000000000C00101C1900C0002001401824900000000000000000000000000000000000000000237230113834210019488420906000002301130600000018841                                                                                                             000001092001780117  00001003759024121         92TASTE-BUDS COOK CLUB\TASTE-BUDS COOK CLUB     ndowner Ext 2ZA\Sundowner Ext\2161         ZAF                                                                                                                                                      0930023003POI01460360029007100000000031417100000000031410148008710271020158010          0165001M                                                                                                                                                             710710000                0000000000000000000                    116000025552367003070201000023640CCA0001D116                                                                                                                                                                                                                      000                                           016 MCC7801171207                   0000000000000000025000                                                                                                    0000000000000000000000000000000000000000000000000000000000000000000000000000000000000000000000000000000000000000000000000000000000000000000000000000000000000000000000000000000000000000000000000000000000000000000000   00000000000000600000018841000000000000                0000000000000000                         000000000000000000000000                                                                                          000            000                                           000                                           000                                           000                                           CCA0001D
05000026CARDMASTERCARD111110000001010000000111110000111000110011100001110000100000001000000010000000000000000000000100000000000000000000000000000000001240165326572602082467   000000000000013700000000013700000000000000000000000000000000000000000000000000000018120723271821010000000000000000000000000C00101C1900C0002001401581300000000000000000000000000000000000000000237230113834210019488801006000002301130600000018841                                                                                                             000001486001358283  000155837  025378         90THE JAZZY RAINBOW CC\THE JAZZY RAINBOW CC     Morningside  ZA\Morningside\4001         ZAF                                                                                                                                                        0930023003POI01460360029007100000000002037100000000002030148008710271020158010          0165001M                                                                                                                                                             710710000                0000000000000000000                    116000026532657260208246700023640CCA0001D116                                                                                                                                                                                                                      000                                           016 MCC3582831207                   0000000000000000026000                                                                                                    0000000000000000000000000000000000000000000000000000000000000000000000000000000000000000000000000000000000000000000000000000000000000000000000000000000000000000000000000000000000000000000000000000000000000000000000   00000000000000600000018841000000000000                0000000000000000                         000000000000000000000000                                                                                          000            000                                           000                                           000                                           000                                           CCA0001D
05000027CARDMASTERCARD111110000001010000000111110000111000110011100001110000100000001000000010000000000000000000000100000000000000000000000000000000001240165239826903723062   000000000000060000000000060000000000000000000000000000000000000000000000000000000018120809292722080000000000000000000000000C00101C1900C0002001401737900000000000000000000000000000000000000000237230113834210019489461206000002301130600000018841                                                                                                             000001981003692749  000301095  029922         90MACTRON TECHNOLOGY\MACTRON TECHNOLOGY       Industrial ArZA\Industrial Ar\3815         ZAF                                                                                                                                                        0930023003POI01460360029007100000000008887100000000008880148008710271020158010          0165001M                                                                                                                                                             710710000                0000000000000000000                    116000027523982690372306200023640CCA0001D116                                                                                                                                                                                                                      000                                           016 MCC6927491208                   0000000000000000027000                                                                                                    0000000000000000000000000000000000000000000000000000000000000000000000000000000000000000000000000000000000000000000000000000000000000000000000000000000000000000000000000000000000000000000000000000000000000000000000   00000000000000600000018841000000000000                0000000000000000                         000000000000000000000000                                                                                          000            000                                           000                                           000                                           000                                           CCA0001D
05000028CARDMASTERCARD111110000001010000000111110000111000110011100001110000100000001000000010000000000000000000000100000000000000000000000000000000001240165523670014435025   000000000000065000000000065000000000000000000000000000000000000000000000000000000018120813254522050000000000000000000000000C00101C1900C0002001401723000000000000000000000000000000000000000000237230113834210019490018706000002301130600000018841                                                                                                             000001429009848345  000303038  034985         83VINTAGE HAIR\VINTAGE HAIR             Stellenbosch ZA\Stellenbosch\7599         ZAF                                                                                                                                                               0930023003POI01460360029007100000000009627100000000009620148008710271020158010          0165001M                                                                                                                                                             710710000                0000000000000000000                    116000028552367001443502500023640CCA0001D116                                                                                                                                                                                                                      000                                           016 MCC8483451208                   0000000000000000028000                                                                                                    0000000000000000000000000000000000000000000000000000000000000000000000000000000000000000000000000000000000000000000000000000000000000000000000000000000000000000000000000000000000000000000000000000000000000000000000   00000000000000600000018841000000000000                0000000000000000                         000000000000000000000000                                                                                          000            000                                           000                                           000                                           000                                           CCA0001D
05000029CARDMASTERCARD111110000001010000000111110000111000110011100001110000100000001000000010000000000000000000000100000000000000000000000000000000001240165221266264794917   000000000000044000000000044000000000000000000000000000000000000000000000000000000018120812343719090000000000000000000000000C00101C1900C0002001401723000000000000000000000000000000000000000000237230113834210019489989206000002301130600000018841                                                                                                             000001429007643831  000303038  034985         83VINTAGE HAIR\VINTAGE HAIR             Stellenbosch ZA\Stellenbosch\7599         ZAF                                                                                                                                                               0930023003POI01460360029007100000000001947100000000001940148008710271020158010          0165001M                                                                                                                                                             710710000                0000000000000000000                    116000029522126626479491700023640CCA0001D116                                                                                                                                                                                                                      000                                           016 MCC6438311208                   0000000000000000029000                                                                                                    0000000000000000000000000000000000000000000000000000000000000000000000000000000000000000000000000000000000000000000000000000000000000000000000000000000000000000000000000000000000000000000000000000000000000000000000   00000000000000600000018841000000000000                0000000000000000                         000000000000000000000000                                                                                          000            000                                           000                                           000                                           000                                           CCA0001D
05000030CARDMASTERCARD111110000001010000000111110000111000110011100001110000100000001000000010000000000000000000000100000000000000000000000000000000001240165229020068574245   000000000000006900000000006900000000000000000000000000000000000000000000000000000018120813232221050000000000000000000000000C00101C1900C0002001401566100000000000000000000000000000000000000000237230113834210019491843706000002301130600000018841                                                                                                             000001345003848202  000107880  037167         83BASSAS SHOE BOX\BASSAS SHOE BOX          Westbrook    ZA\Westbrook\4400         ZAF                                                                                                                                                               0930023003POI01460360029007100000000001027100000000001020148008710271020158010          0165001M                                                                                                                                                             710710000                0000000000000000000                    106000030522902006857424500023640CCA0001D106                                                                                                                                                                                                                      000                                           016 MCC8482021208                   0000000000000000030000                                                                                                    0000000000000000000000000000000000000000000000000000000000000000000000000000000000000000000000000000000000000000000000000000000000000000000000000000000000000000000000000000000000000000000000000000000000000000000000   00000000000000600000018841000000000000                0000000000000000                         000000000000000000000000                                                                                          000            000                                           000                                           000                                           000                                           CCA0001D
05000031CARDMASTERCARD111110000001010000000111110000111000110011100001110000100000001000000010000000000000000000000100000000000000000000000000000000001240165412820018183055   000000000000019500000000019500000000000000000000000000000000000000000000000000000018120810050719050000000000000000000000000C00101C1900C0002001401566100000000000000000000000000000000000000000237230113834210019491848606000002301130600000018841                                                                                                             000001345001836308  000107880  037167         83BASSAS SHOE BOX\BASSAS SHOE BOX          Westbrook    ZA\Westbrook\4400         ZAF                                                                                                                                                               0930023003POI01460360029007100000000002897100000000002890148008710271020158010          0165001M                                                                                                                                                             710710000                0000000000000000000                    106000031541282001818305500023640CCA0001D106                                                                                                                                                                                                                      000                                           016 MCC8363081208                   0000000000000000031000                                                                                                    0000000000000000000000000000000000000000000000000000000000000000000000000000000000000000000000000000000000000000000000000000000000000000000000000000000000000000000000000000000000000000000000000000000000000000000000   00000000000000600000018841000000000000                0000000000000000                         000000000000000000000000                                                                                          000            000                                           000                                           000                                           000                                           CCA0001D
05000032CARDMASTERCARD111110000001010000000111110000111000110011100001110000100000001000000010000000000000000000000100000000000000000000000000000000001240165520578441733594   000000000000482560000000482560000000000000000000000000000000000000000000000000000018120708153722020000000000000000000000000C00101C1900C0002001401802100000000000000000000000000000000000000000237230113834210019490148206000002301130600000018841                                                                                                             000001847004653771  000112206  038363         90GHABRIAL ORTHODONTICS \ABRIAL ORTHODONTICS IN   Hazelwood    ZA\Hazelwood\0081         ZAF                                                                                                                                                        0930023003POI01460360029007100000000071427100000000071420148008710271020158010          0165001M                                                                                                                                                             710710000                0000000000000000000                    116000032552057844173359400023640CCA0001D116                                                                                                                                                                                                                      000                                           016 MCC6537711207                   0000000000000000032000                                                                                                    0000000000000000000000000000000000000000000000000000000000000000000000000000000000000000000000000000000000000000000000000000000000000000000000000000000000000000000000000000000000000000000000000000000000000000000000   00000000000000600000018841000000000000                0000000000000000                         000000000000000000000000                                                                                          000            000                                           000                                           000                                           000                                           CCA0001D
05000033CARDMASTERCARD111110000001010000000101110000111000000011100001110000000000000000000010000000000000000000000100000000000000000000000000000000001240165520578441719171   000000000000014000000000014000000000000000000000000000000000000000000000000000000018120714123222010000000000000000000000000C00101F590000002001402802100000000000000000000000000000000000000000237230113834210019490206806000002301130600000018841                                                                                                                         000000  000112206  038363         61GHABRIAL ORTHODONTICS \FAERIE GLEN\Hazelwood\0081         ZAF                                                                                                                                                                                     0930023003POI01460360029007100000000002177100000000002170148008710271020158010          0165001M                                                                                                                                                             710710000                0000000000000000000                    000                                                                                                                                                                                                                                                               000                                           000                                 0000000000000000033000                                                                                                    0000000000000000000000000000000000000000000000000000000000000000000000000000000000000000000000000000000000000000000000000000000000000000000000000000000000000000000000000000000000000000000000000000000000000000000000   00000000000000600000018841000000000000                0000000000000000                         000000000000000000000000                                                                                          000            000                                           000                                           000                                           000                                           CCA0001D
05000034CARDMASTERCARD111110000001010000000111110000111000110011100001110000100000001000000010000000000000000000000100000000000000000000000000000000001240165181030000458965   000000000000033000000000033000000000000000000000000000000000000000000000000000000018120715003321060000000000000000000000000C00101C1900C0002001401802100000000000000000000000000000000000000000237230113834210019490132606000002301130600000018841                                                                                                             000001847009754033  000112206  038363         90GHABRIAL ORTHODONTICS \ABRIAL ORTHODONTICS IN   Hazelwood    ZA\Hazelwood\0081         ZAF                                                                                                                                                        0930023003POI01460360029007100000000004887100000000004880148008710271020158010          0165001M                                                                                                                                                             710710000                0000000000000000000                    116000034518103000045896500023640CCA0001D116                                                                                                                                                                                                                      000                                           016 MCC7540331207                   0000000000000000034000                                                                                                    0000000000000000000000000000000000000000000000000000000000000000000000000000000000000000000000000000000000000000000000000000000000000000000000000000000000000000000000000000000000000000000000000000000000000000000000   00000000000000600000018841000000000000                0000000000000000                         000000000000000000000000                                                                                          000            000                                           000                                           000                                           000                                           CCA0001D
05000035CARDMASTERCARD111110000001010000000111110000111000110011100001110000100000001000000010000000000000000000000100000000000000000000000000000000001240165229020078644186   000000000000007500000000007500000000000000000000000000000000000000000000000000000018120813384722070000000000000000000000000C00101C1900C0002001401591200000000000000000000000000000000000000000237230113834210019492149806000002301130600000018841                                                                                                             000001308047849127  000302718  040721         84MODJADJI PHARMACY\MODJADJI PHARMACY        Mokwathi     ZA\Mokwathi\0838         ZAF                                                                                                                                                              0930023003POI01460360029007100000000001117100000000001110148008710271020158010          0165001M                                                                                                                                                             710710000                0000000000000000000                    116000035522902007864418600023640CCA0001D116                                                                                                                                                                                                                      000                                           016 MCC8491271208                   0000000000000000035000                                                                                                    0000000000000000000000000000000000000000000000000000000000000000000000000000000000000000000000000000000000000000000000000000000000000000000000000000000000000000000000000000000000000000000000000000000000000000000000   00000000000000600000018841000000000000                0000000000000000                         000000000000000000000000                                                                                          000            000                                           000                                           000                                           000                                           CCA0001D
05000036CARDMASTERCARD111110000001010000000111110000111000110011100001110000100000001000000010000000000000000000000100000000000000000000000000000000001240165229020099348288   000000000000010000000000010000000000000000000000000000000000000000000000000000000018120812265022020000000000000000000000000C00101C1900C0002001401591200000000000000000000000000000000000000000237230113834210019492134006000002301130600000018841                                                                                                             000001308035844811  000302718  040721         84MODJADJI PHARMACY\MODJADJI PHARMACY        Mokwathi     ZA\Mokwathi\0838         ZAF                                                                                                                                                              0930023003POI01460360029007100000000001487100000000001480148008710271020158010          0165001M                                                                                                                                                             710710000                0000000000000000000                    116000036522902009934828800023640CCA0001D116                                                                                                                                                                                                                      000                                           016 MCC8448111208                   0000000000000000036000                                                                                                    0000000000000000000000000000000000000000000000000000000000000000000000000000000000000000000000000000000000000000000000000000000000000000000000000000000000000000000000000000000000000000000000000000000000000000000000   00000000000000600000018841000000000000                0000000000000000                         000000000000000000000000                                                                                          000            000                                           000                                           000                                           000                                           CCA0001D
05000037CARDMASTERCARD111110000001010000000111110000111000110011100001110000100000001000000010000000000000000000000100000000000000000000000000000000001240165471200324676019   000000000000005000000000005000000000000000000000000000000000000000000000000000000018120813223421010000000000000000000000000C00101C1900C0002001401591200000000000000000000000000000000000000000237230113834210019492055706000002301130600000018841                                                                                                             000001308045848155  000302718  040721         84MODJADJI PHARMACY\MODJADJI PHARMACY        Mokwathi     ZA\Mokwathi\0838         ZAF                                                                                                                                                              0930023003POI01460360029007100000000000227100000000000220148008710271020158010          0165001M                                                                                                                                                             710710000                0000000000000000000                    116000037547120032467601900023640CCA0001D116                                                                                                                                                                                                                      000                                           016 MCC8481551208                   0000000000000000037000                                                                                                    0000000000000000000000000000000000000000000000000000000000000000000000000000000000000000000000000000000000000000000000000000000000000000000000000000000000000000000000000000000000000000000000000000000000000000000000   00000000000000600000018841000000000000                0000000000000000                         000000000000000000000000                                                                                          000            000                                           000                                           000                                           000                                           CCA0001D
05000038CARDMASTERCARD111110000001010000000111110000111000110011100001110000100000001000000010000000000000000000000100000000000000000000000000000000001240165284830004411779   000000000000007600000000007600000000000000000000000000000000000000000000000000000018120813571118120000000000000000000000000C00101C1900C0002001401594400000000000000000000000000000000000000000237230113834210019492377506000002301130600000018841                                                                                                             000001227019183571  000340965  041151         94SOLELY NAMAQUALAND BIL\SOLELY NAMAQUALAND BIL   Annandale VilZA\Annandale Vil\7441         ZAF                                                                                                                                                    0930023003POI01460360029007100000000001127100000000001120148008710271020158010          0165001M                                                                                                                                                             710710000                0000000000000000000                    116000038528483000441177900023640CCA0001D116                                                                                                                                                                                                                      000                                           016 MCC1835711208                   0000000000000000038000                                                                                                    0000000000000000000000000000000000000000000000000000000000000000000000000000000000000000000000000000000000000000000000000000000000000000000000000000000000000000000000000000000000000000000000000000000000000000000000   00000000000000600000018841000000000000                0000000000000000                         000000000000000000000000                                                                                          000            000                                           000                                           000                                           000                                           CCA0001D
05000039CARDMASTERCARD111110000001010000000111110000111000110011100001110000100000001000000010000000000000000000000100000000000000000000000000000000001240165326572601869153   000000000000036600000000036600000000000000000000000000000000000000000000000000000018120817584220090000000000000000000000000C00101C1900C0002001401594400000000000000000000000000000000000000000237230113834210019492380906000002301130600000018841                                                                                                             000001227031434439  000340965  041151         94SOLELY NAMAQUALAND BIL\SOLELY NAMAQUALAND BIL   Annandale VilZA\Annandale Vil\7441         ZAF                                                                                                                                                    0930023003POI01460360029007100000000005427100000000005420148008710271020158010          0165001M                                                                                                                                                             710710000                0000000000000000000                    116000039532657260186915300023642CCA0001D116                                                                                                                                                                                                                      000                                           016 MCC4344391208                   0000000000000000039000                                                                                                    0000000000000000000000000000000000000000000000000000000000000000000000000000000000000000000000000000000000000000000000000000000000000000000000000000000000000000000000000000000000000000000000000000000000000000000000   00000000000000600000018841000000000000                0000000000000000                         000000000000000000000000                                                                                          000            000                                           000                                           000                                           000                                           CCA0001D
05000040CARDMASTERCARD111110000001010000000111110000111000110011100001110000100000001000000010000000000000000000000100000000000000000000000000000000001240165412820021010022   000000000000025400000000025400000000000000000000000000000000000000000000000000000018120811512821100000000000000000000000000C00101C1900C0002001401594400000000000000000000000000000000000000000237230113834210019492382506000002301130600000018841                                                                                                             000001227005842689  000340965  041151         94SOLELY NAMAQUALAND BIL\SOLELY NAMAQUALAND BIL   Annandale VilZA\Annandale Vil\7441         ZAF                                                                                                                                                    0930023003POI01460360029007100000000003767100000000003760148008710271020158010          0165001M                                                                                                                                                             710710000                0000000000000000000                    116000040541282002101002200023642CCA0001D116                                                                                                                                                                                                                      000                                           016 MCC8426891208                   0000000000000000040000                                                                                                    0000000000000000000000000000000000000000000000000000000000000000000000000000000000000000000000000000000000000000000000000000000000000000000000000000000000000000000000000000000000000000000000000000000000000000000000   00000000000000600000018841000000000000                0000000000000000                         000000000000000000000000                                                                                          000            000                                           000                                           000                                           000                                           CCA0001D
05000041CARDMASTERCARD111110000001010000000111110000111000110011100001110000100000001000000010000000000000000000000100000000000000000000000000000000001240165222502267739593   000000000000012200000000012200000000000000000000000000000000000000000000000000000018120814173023110000000000000000000000000C00101C1900C0002001401594400000000000000000000000000000000000000000237230113834210019492387406000002301130600000018841                                                                                                             000001227021850911  000340965  041151         94SOLELY NAMAQUALAND BIL\SOLELY NAMAQUALAND BIL   Annandale VilZA\Annandale Vil\7441         ZAF                                                                                                                                                    0930023003POI01460360029007100000000000547100000000000540148008710271020158010          0165001M                                                                                                                                                             710710000                0000000000000000000                    116000041522250226773959300023642CCA0001D116                                                                                                                                                                                                                      000                                           016 MCC8509111208                   0000000000000000041000                                                                                                    0000000000000000000000000000000000000000000000000000000000000000000000000000000000000000000000000000000000000000000000000000000000000000000000000000000000000000000000000000000000000000000000000000000000000000000000   00000000000000600000018841000000000000                0000000000000000                         000000000000000000000000                                                                                          000            000                                           000                                           000                                           000                                           CCA0001D
05000042CARDMASTERCARD111110000001010000000111110000111000110011100001110000100000001000000010000000000000000000000100000000000000000000000000000000001240165229020044073585   000000000000013000000000013000000000000000000000000000000000000000000000000000000018120817154522020000000000000000000000000C00101C1900C0002001401594400000000000000000000000000000000000000000237230113834210019492411206000002301130600000018841                                                                                                             000001227027862146  000340965  041151         94SOLELY NAMAQUALAND BIL\SOLELY NAMAQUALAND BIL   Annandale VilZA\Annandale Vil\7441         ZAF                                                                                                                                                    0930023003POI01460360029007100000000001927100000000001920148008710271020158010          0165001M                                                                                                                                                             710710000                0000000000000000000                    116000042522902004407358500023642CCA0001D116                                                                                                                                                                                                                      000                                           016 MCC8621461208                   0000000000000000042000                                                                                                    0000000000000000000000000000000000000000000000000000000000000000000000000000000000000000000000000000000000000000000000000000000000000000000000000000000000000000000000000000000000000000000000000000000000000000000000   00000000000000600000018841000000000000                0000000000000000                         000000000000000000000000                                                                                          000            000                                           000                                           000                                           000                                           CCA0001D
05000043CARDMASTERCARD111110000001010000000111110000111000110011100001110000100000001000000010000000000000000000000100000000000000000000000000000000001240165412830919832486   000000000000050200000000050200000000000000000000000000000000000000000000000000000018120809415421040000000000000000000000000C00101C1900C0002001401526100000000000000000000000000000000000000000237230113834210019492810506000002301130600000018841                                                                                                             000000003002834914  00010000599042255         86REBBEL PEBBLES\REBBEL PEBBLES           on Park Ext 1ZA\Kempton Park \1619         ZAF                                                                                                                                                            0930023003POI01460360029007100000000007437100000000007430148008710271020158010          0165001M                                                                                                                                                             710710000                0000000000000000000                    116000043541283091983248600023642CCA0001D116                                                                                                                                                                                                                      000                                           016 MCC8349141208                   0000000000000000043000                                                                                                    0000000000000000000000000000000000000000000000000000000000000000000000000000000000000000000000000000000000000000000000000000000000000000000000000000000000000000000000000000000000000000000000000000000000000000000000   00000000000000600000018841000000000000                0000000000000000                         000000000000000000000000                                                                                          000            000                                           000                                           000                                           000                                           CCA0001D
05000044CARDMASTERCARD111110000001010000000111110000111000110011100001110000100000001000000010000000000000000000000100000000000000000000000000000000001240165520578037157802   000000000000110000000000110000000000000000000000000000000000000000000000000000000018120813314622010000000000000000000000000C00101C1900C0002001401526100000000000000000000000000000000000000000237230113834210019492863406000002301130600000018841                                                                                                             000000003009614725  00010000599042255         86REBBEL PEBBLES\REBBEL PEBBLES           on Park Ext 1ZA\Kempton Park \1619         ZAF                                                                                                                                                            0930023003POI01460360029007100000000016287100000000016280148008710271020158010          0165001M                                                                                                                                                             710710000                0000000000000000000                    116000044552057803715780200023642CCA0001D116                                                                                                                                                                                                                      000                                           016 MCC6147251208                   0000000000000000044000                                                                                                    0000000000000000000000000000000000000000000000000000000000000000000000000000000000000000000000000000000000000000000000000000000000000000000000000000000000000000000000000000000000000000000000000000000000000000000000   00000000000000600000018841000000000000                0000000000000000                         000000000000000000000000                                                                                          000            000                                           000                                           000                                           000                                           CCA0001D
