0120181210CARDFLEET CARD0003ACBJCLA0001D0001DATAIN 20181210LIVE01680016                                                                                                 
05005858290318569323000   74901078342000004145431003448861208000000060365710000000060365710SHELL MARLBORO DRIVE     344886       ZA 000000000   0 1000 8258175   S 8342 
0501000000000000000000                                                                         911238  000000000000  000000                                  000000000  
0503            FL144053  106L00000003961000000000000000006036500000006036500000000000000000000000000001042010015000000000000            000000000000B                  
92004901070834200000000000000000004314057900003800000000000100000000000000000000990000000000000000000000000051401879000000000000000000000000000000000000000000000       
9820181208CARDFLEET CARD00000001000000000000000100000000000000000000004698500494845169382847                                                                            
9920181210CARDFLEET CARD00030000070000000365495CBA7B8D94D20000000076D1E413      690338                                                                                  
