0120181210CARDVISA CARD 0003ACBJCVA0001D0001DATAIN 20181210LIVE01680016                                                                                                 
9040672418342                                                               506                                                                                         
05004038226135682028000   74067248342100194936980100218201208000000014500710000000014500710PHA DRY CLEANING DYNAM   Port Alfred  ZA 721606170     1009N0888905 2 058342B
0501            000000                                                     SA1  012064         10000369000000000000  000000  0   0                           000000000  
050500000000000000000000001450071000        0000 000000000000N                             000000000000000 0000000000000000000000000000              0000000000000000   
050700000181208E0F0C8710        7F2C366600537C00380217B142487A43010A008000000003A420420000000145000A0200000008201A6906BBBE                                              
91004067241834200000000496191400000000009450600300000000037500000050600003000000095000000000000000000000000004961914000000000000000000000000000000000000000000000       
920040672418342000000036648787000000000935000001000000003734000000        000000945000000000000000000000000036648787000000000000000000000000000000000000000000000       
9920181210CARDVISA CARD 0003000009000000039B2B2E7519D372670000000021AE371C           0                                                                                  
